{
  "_format": "hh-sol-artifact-1",
  "contractName": "IdentityRegistry",
  "sourceName": "contracts/IdentityRegistry.sol",
  "address": "0xE15dab4Dd59dC807187c907A9A8f0fA06f6FF3Ac",
  "abi": [
    {
      "inputs": [
        {
          "internalType": "address",
          "name": "owner",
          "type": "address"
        }
      ],
      "name": "DIDAlreadyDeactivated",
      "type": "error"
    },
    {
      "inputs": [
        {
          "internalType": "string",
          "name": "did",
          "type": "string"
        }
      ],
      "name": "DIDAlreadyExists",
      "type": "error"
    },
    {
      "inputs": [
        {
          "internalType": "address",
          "name": "owner",
          "type": "address"
        }
      ],
      "name": "DIDAlreadyRegistered",
      "type": "error"
    },
    {
      "inputs": [],
      "name": "DIDCannotBeEmpty",
      "type": "error"
    },
    {
      "inputs": [
        {
          "internalType": "string",
          "name": "did",
          "type": "string"
        }
      ],
      "name": "DIDNotFound",
      "type": "error"
    },
    {
      "inputs": [],
      "name": "NotAuthorized",
      "type": "error"
    },
    {
      "inputs": [],
      "name": "PublicKeyCannotBeEmpty",
      "type": "error"
    },
    {
      "anonymous": false,
      "inputs": [
        {
          "indexed": false,
          "internalType": "string",
          "name": "did",
          "type": "string"
        },
        {
          "indexed": true,
          "internalType": "address",
          "name": "owner",
          "type": "address"
        }
      ],
      "name": "DIDDeactivated",
      "type": "event"
    },
    {
      "anonymous": false,
      "inputs": [
        {
          "indexed": false,
          "internalType": "string",
          "name": "did",
          "type": "string"
        },
        {
          "indexed": true,
          "internalType": "address",
          "name": "owner",
          "type": "address"
        }
      ],
      "name": "DIDRegistered",
      "type": "event"
    },
    {
      "inputs": [
        {
          "internalType": "string",
          "name": "did",
          "type": "string"
        }
      ],
      "name": "deactivateDID",
      "outputs": [],
      "stateMutability": "nonpayable",
      "type": "function"
    },
    {
      "inputs": [
        {
          "internalType": "string",
          "name": "did",
          "type": "string"
        }
      ],
      "name": "getDIDDocument",
      "outputs": [
        {
          "components": [
            {
              "internalType": "string",
              "name": "did",
              "type": "string"
            },
            {
              "internalType": "string",
              "name": "publicKey",
              "type": "string"
            },
            {
              "internalType": "uint256",
              "name": "timestamp",
              "type": "uint256"
            },
            {
              "internalType": "bool",
              "name": "active",
              "type": "bool"
            }
          ],
          "internalType": "struct IdentityRegistry.DIDDocument",
          "name": "",
          "type": "tuple"
        }
      ],
      "stateMutability": "view",
      "type": "function"
    },
    {
      "inputs": [
        {
          "internalType": "string",
          "name": "did",
          "type": "string"
        }
      ],
      "name": "getDidAddress",
      "outputs": [
        {
          "internalType": "address",
          "name": "",
          "type": "address"
        }
      ],
      "stateMutability": "view",
      "type": "function"
    },
    {
      "inputs": [
        {
          "internalType": "string",
          "name": "did",
          "type": "string"
        }
      ],
      "name": "isValidDID",
      "outputs": [
        {
          "internalType": "bool",
          "name": "",
          "type": "bool"
        }
      ],
      "stateMutability": "view",
      "type": "function"
    },
    {
      "inputs": [
        {
          "internalType": "string",
          "name": "did",
          "type": "string"
        },
        {
          "internalType": "string",
          "name": "publicKey",
          "type": "string"
        }
      ],
      "name": "registerDID",
      "outputs": [],
      "stateMutability": "nonpayable",
      "type": "function"
    }
  ],
  "bytecode": "0x6080604052348015600f57600080fd5b5061116f8061001f6000396000f3fe608060405234801561001057600080fd5b50600436106100575760003560e01c806331638e671461005c5780633b253b231461008c578063784afc4e146100a85780637e5c39e9146100d8578063e4114498146100f4575b600080fd5b61007660048036038101906100719190610ace565b610124565b6040516100839190610b5c565b60405180910390f35b6100a660048036038101906100a19190610ace565b61016f565b005b6100c260048036038101906100bd9190610ace565b610352565b6040516100cf9190610ca5565b60405180910390f35b6100f260048036038101906100ed9190610cc7565b6105ad565b005b61010e60048036038101906101099190610ace565b61095e565b60405161011b9190610d57565b60405180910390f35b600060018383604051610138929190610db1565b908152602001604051809103902060009054906101000a900473ffffffffffffffffffffffffffffffffffffffff16905092915050565b3373ffffffffffffffffffffffffffffffffffffffff1660018383604051610198929190610db1565b908152602001604051809103902060009054906101000a900473ffffffffffffffffffffffffffffffffffffffff1673ffffffffffffffffffffffffffffffffffffffff1614610214576040517fea8e4eb500000000000000000000000000000000000000000000000000000000815260040160405180910390fd5b6000803373ffffffffffffffffffffffffffffffffffffffff1673ffffffffffffffffffffffffffffffffffffffff16815260200190815260200160002060030160009054906101000a900460ff166102a457336040517f514b483a00000000000000000000000000000000000000000000000000000000815260040161029b9190610b5c565b60405180910390fd5b60008060003373ffffffffffffffffffffffffffffffffffffffff1673ffffffffffffffffffffffffffffffffffffffff16815260200190815260200160002060030160006101000a81548160ff0219169083151502179055503373ffffffffffffffffffffffffffffffffffffffff167ff6b2dd15d200455b3d1e4bd4a934b80a5433e5f54a2cae19670a9ca3b4f457918383604051610346929190610e08565b60405180910390a25050565b61035a610a35565b60006001848460405161036e929190610db1565b908152602001604051809103902060009054906101000a900473ffffffffffffffffffffffffffffffffffffffff169050600073ffffffffffffffffffffffffffffffffffffffff168173ffffffffffffffffffffffffffffffffffffffff16036104125783836040517f0d28a9eb000000000000000000000000000000000000000000000000000000008152600401610409929190610e08565b60405180910390fd5b6000808273ffffffffffffffffffffffffffffffffffffffff1673ffffffffffffffffffffffffffffffffffffffff16815260200190815260200160002060405180608001604052908160008201805461046b90610e5b565b80601f016020809104026020016040519081016040528092919081815260200182805461049790610e5b565b80156104e45780601f106104b9576101008083540402835291602001916104e4565b820191906000526020600020905b8154815290600101906020018083116104c757829003601f168201915b505050505081526020016001820180546104fd90610e5b565b80601f016020809104026020016040519081016040528092919081815260200182805461052990610e5b565b80156105765780601f1061054b57610100808354040283529160200191610576565b820191906000526020600020905b81548152906001019060200180831161055957829003601f168201915b50505050508152602001600282015481526020016003820160009054906101000a900460ff16151515158152505091505092915050565b600084849050036105ea576040517fccdf6bd500000000000000000000000000000000000000000000000000000000815260040160405180910390fd5b60008282905003610627576040517f8a09289100000000000000000000000000000000000000000000000000000000815260040160405180910390fd5b60008060003373ffffffffffffffffffffffffffffffffffffffff1673ffffffffffffffffffffffffffffffffffffffff16815260200190815260200160002060020154146106ad57336040517fd2a299910000000000000000000000000000000000000000000000000000000081526004016106a49190610b5c565b60405180910390fd5b600073ffffffffffffffffffffffffffffffffffffffff16600185856040516106d7929190610db1565b908152602001604051809103902060009054906101000a900473ffffffffffffffffffffffffffffffffffffffff1673ffffffffffffffffffffffffffffffffffffffff16146107605783836040517f34239c13000000000000000000000000000000000000000000000000000000008152600401610757929190610e08565b60405180910390fd5b6000604051806080016040528086868080601f016020809104026020016040519081016040528093929190818152602001838380828437600081840152601f19601f82011690508083019250505050505050815260200184848080601f016020809104026020016040519081016040528093929190818152602001838380828437600081840152601f19601f820116905080830192505050505050508152602001428152602001600115158152509050806000803373ffffffffffffffffffffffffffffffffffffffff1673ffffffffffffffffffffffffffffffffffffffff16815260200190815260200160002060008201518160000190816108649190611067565b50602082015181600101908161087a9190611067565b506040820151816002015560608201518160030160006101000a81548160ff02191690831515021790555090505033600186866040516108bb929190610db1565b908152602001604051809103902060006101000a81548173ffffffffffffffffffffffffffffffffffffffff021916908373ffffffffffffffffffffffffffffffffffffffff1602179055503373ffffffffffffffffffffffffffffffffffffffff167fd59e4d670f6e249831d6f8ce560f47ced54b3f4203e2d0050dc495fd6b919dd2868660405161094f929190610e08565b60405180910390a25050505050565b60008060018484604051610973929190610db1565b908152602001604051809103902060009054906101000a900473ffffffffffffffffffffffffffffffffffffffff169050600073ffffffffffffffffffffffffffffffffffffffff168173ffffffffffffffffffffffffffffffffffffffff1614158015610a2c57506000808273ffffffffffffffffffffffffffffffffffffffff1673ffffffffffffffffffffffffffffffffffffffff16815260200190815260200160002060030160009054906101000a900460ff165b91505092915050565b60405180608001604052806060815260200160608152602001600081526020016000151581525090565b600080fd5b600080fd5b600080fd5b600080fd5b600080fd5b60008083601f840112610a8e57610a8d610a69565b5b8235905067ffffffffffffffff811115610aab57610aaa610a6e565b5b602083019150836001820283011115610ac757610ac6610a73565b5b9250929050565b60008060208385031215610ae557610ae4610a5f565b5b600083013567ffffffffffffffff811115610b0357610b02610a64565b5b610b0f85828601610a78565b92509250509250929050565b600073ffffffffffffffffffffffffffffffffffffffff82169050919050565b6000610b4682610b1b565b9050919050565b610b5681610b3b565b82525050565b6000602082019050610b716000830184610b4d565b92915050565b600081519050919050565b600082825260208201905092915050565b60005b83811015610bb1578082015181840152602081019050610b96565b60008484015250505050565b6000601f19601f8301169050919050565b6000610bd982610b77565b610be38185610b82565b9350610bf3818560208601610b93565b610bfc81610bbd565b840191505092915050565b6000819050919050565b610c1a81610c07565b82525050565b60008115159050919050565b610c3581610c20565b82525050565b60006080830160008301518482036000860152610c588282610bce565b91505060208301518482036020860152610c728282610bce565b9150506040830151610c876040860182610c11565b506060830151610c9a6060860182610c2c565b508091505092915050565b60006020820190508181036000830152610cbf8184610c3b565b905092915050565b60008060008060408587031215610ce157610ce0610a5f565b5b600085013567ffffffffffffffff811115610cff57610cfe610a64565b5b610d0b87828801610a78565b9450945050602085013567ffffffffffffffff811115610d2e57610d2d610a64565b5b610d3a87828801610a78565b925092505092959194509250565b610d5181610c20565b82525050565b6000602082019050610d6c6000830184610d48565b92915050565b600081905092915050565b82818337600083830152505050565b6000610d988385610d72565b9350610da5838584610d7d565b82840190509392505050565b6000610dbe828486610d8c565b91508190509392505050565b600082825260208201905092915050565b6000610de78385610dca565b9350610df4838584610d7d565b610dfd83610bbd565b840190509392505050565b60006020820190508181036000830152610e23818486610ddb565b90509392505050565b7f4e487b7100000000000000000000000000000000000000000000000000000000600052602260045260246000fd5b60006002820490506001821680610e7357607f821691505b602082108103610e8657610e85610e2c565b5b50919050565b7f4e487b7100000000000000000000000000000000000000000000000000000000600052604160045260246000fd5b60008190508160005260206000209050919050565b60006020601f8301049050919050565b600082821b905092915050565b600060088302610f1d7fffffffffffffffffffffffffffffffffffffffffffffffffffffffffffffffff82610ee0565b610f278683610ee0565b95508019841693508086168417925050509392505050565b6000819050919050565b6000610f64610f5f610f5a84610c07565b610f3f565b610c07565b9050919050565b6000819050919050565b610f7e83610f49565b610f92610f8a82610f6b565b848454610eed565b825550505050565b600090565b610fa7610f9a565b610fb2818484610f75565b505050565b5b81811015610fd657610fcb600082610f9f565b600181019050610fb8565b5050565b601f82111561101b57610fec81610ebb565b610ff584610ed0565b81016020851015611004578190505b61101861101085610ed0565b830182610fb7565b50505b505050565b600082821c905092915050565b600061103e60001984600802611020565b1980831691505092915050565b6000611057838361102d565b9150826002028217905092915050565b61107082610b77565b67ffffffffffffffff81111561108957611088610e8c565b5b6110938254610e5b565b61109e828285610fda565b600060209050601f8311600181146110d157600084156110bf578287015190505b6110c9858261104b565b865550611131565b601f1984166110df86610ebb565b60005b82811015611107578489015182556001820191506020850194506020810190506110e2565b868310156111245784890151611120601f89168261102d565b8355505b6001600288020188555050505b50505050505056fea26469706673582212209dee36ae602adf2ba04bae65e975f2dae60cc5365abddb0fe20b7258e9e5a9df64736f6c634300081b0033",
  "linkReferences": {},
  "deployedLinkReferences": {}
}