{
  "_format": "hh-sol-artifact-1",
  "contractName": "IdentityRegistry",
  "sourceName": "contracts/IdentityRegistry.sol",
  "address": "0x355c6412Dd7f3e3A837ca5833D2E66f4046F09E4",
  "abi": [
    {
      "inputs": [
        {
          "internalType": "address",
          "name": "owner",
          "type": "address"
        }
      ],
      "name": "DIDAlreadyDeactivated",
      "type": "error"
    },
    {
      "inputs": [
        {
          "internalType": "string",
          "name": "did",
          "type": "string"
        }
      ],
      "name": "DIDAlreadyExists",
      "type": "error"
    },
    {
      "inputs": [
        {
          "internalType": "address",
          "name": "owner",
          "type": "address"
        }
      ],
      "name": "DIDAlreadyRegistered",
      "type": "error"
    },
    {
      "inputs": [],
      "name": "DIDCannotBeEmpty",
      "type": "error"
    },
    {
      "inputs": [
        {
          "internalType": "string",
          "name": "did",
          "type": "string"
        }
      ],
      "name": "DIDNotFound",
      "type": "error"
    },
    {
      "inputs": [],
      "name": "NotAuthorized",
      "type": "error"
    },
    {
      "inputs": [],
      "name": "PublicKeyCannotBeEmpty",
      "type": "error"
    },
    {
      "anonymous": false,
      "inputs": [
        {
          "indexed": false,
          "internalType": "string",
          "name": "did",
          "type": "string"
        },
        {
          "indexed": true,
          "internalType": "address",
          "name": "owner",
          "type": "address"
        }
      ],
      "name": "DIDDeactivated",
      "type": "event"
    },
    {
      "anonymous": false,
      "inputs": [
        {
          "indexed": false,
          "internalType": "string",
          "name": "did",
          "type": "string"
        },
        {
          "indexed": true,
          "internalType": "address",
          "name": "owner",
          "type": "address"
        }
      ],
      "name": "DIDRegistered",
      "type": "event"
    },
    {
      "inputs": [
        {
          "internalType": "string",
          "name": "did",
          "type": "string"
        }
      ],
      "name": "deactivateDID",
      "outputs": [],
      "stateMutability": "nonpayable",
      "type": "function"
    },
    {
      "inputs": [
        {
          "internalType": "string",
          "name": "did",
          "type": "string"
        }
      ],
      "name": "getDIDDocument",
      "outputs": [
        {
          "components": [
            {
              "internalType": "string",
              "name": "did",
              "type": "string"
            },
            {
              "internalType": "string",
              "name": "publicKey",
              "type": "string"
            },
            {
              "internalType": "uint256",
              "name": "timestamp",
              "type": "uint256"
            },
            {
              "internalType": "bool",
              "name": "active",
              "type": "bool"
            }
          ],
          "internalType": "struct IdentityRegistry.DIDDocument",
          "name": "",
          "type": "tuple"
        }
      ],
      "stateMutability": "view",
      "type": "function"
    },
    {
      "inputs": [
        {
          "internalType": "string",
          "name": "did",
          "type": "string"
        }
      ],
      "name": "getDidAddress",
      "outputs": [
        {
          "internalType": "address",
          "name": "",
          "type": "address"
        }
      ],
      "stateMutability": "view",
      "type": "function"
    },
    {
      "inputs": [
        {
          "internalType": "address",
          "name": "owner",
          "type": "address"
        }
      ],
      "name": "getIdentity",
      "outputs": [
        {
          "components": [
            {
              "internalType": "string",
              "name": "did",
              "type": "string"
            },
            {
              "internalType": "string",
              "name": "publicKey",
              "type": "string"
            },
            {
              "internalType": "uint256",
              "name": "timestamp",
              "type": "uint256"
            },
            {
              "internalType": "bool",
              "name": "active",
              "type": "bool"
            }
          ],
          "internalType": "struct IdentityRegistry.DIDDocument",
          "name": "",
          "type": "tuple"
        }
      ],
      "stateMutability": "view",
      "type": "function"
    },
    {
      "inputs": [
        {
          "internalType": "string",
          "name": "did",
          "type": "string"
        }
      ],
      "name": "isValidDID",
      "outputs": [
        {
          "internalType": "bool",
          "name": "",
          "type": "bool"
        }
      ],
      "stateMutability": "view",
      "type": "function"
    },
    {
      "inputs": [
        {
          "internalType": "string",
          "name": "did",
          "type": "string"
        },
        {
          "internalType": "string",
          "name": "publicKey",
          "type": "string"
        }
      ],
      "name": "registerDID",
      "outputs": [],
      "stateMutability": "nonpayable",
      "type": "function"
    }
  ],
  "bytecode": "0x6080604052348015600f57600080fd5b506113a48061001f6000396000f3fe608060405234801561001057600080fd5b50600436106100625760003560e01c80632fea7b811461006757806331638e67146100975780633b253b23146100c7578063784afc4e146100e35780637e5c39e914610113578063e41144981461012f575b600080fd5b610081600480360381019061007c9190610ca3565b61015f565b60405161008e9190610dfe565b60405180910390f35b6100b160048036038101906100ac9190610e85565b610300565b6040516100be9190610ee1565b60405180910390f35b6100e160048036038101906100dc9190610e85565b61034b565b005b6100fd60048036038101906100f89190610e85565b61052e565b60405161010a9190610dfe565b60405180910390f35b61012d60048036038101906101289190610efc565b610789565b005b61014960048036038101906101449190610e85565b610b3a565b6040516101569190610f8c565b60405180910390f35b610167610c11565b6000808373ffffffffffffffffffffffffffffffffffffffff1673ffffffffffffffffffffffffffffffffffffffff1681526020019081526020016000206040518060800160405290816000820180546101c090610fd6565b80601f01602080910402602001604051908101604052809291908181526020018280546101ec90610fd6565b80156102395780601f1061020e57610100808354040283529160200191610239565b820191906000526020600020905b81548152906001019060200180831161021c57829003601f168201915b5050505050815260200160018201805461025290610fd6565b80601f016020809104026020016040519081016040528092919081815260200182805461027e90610fd6565b80156102cb5780601f106102a0576101008083540402835291602001916102cb565b820191906000526020600020905b8154815290600101906020018083116102ae57829003601f168201915b50505050508152602001600282015481526020016003820160009054906101000a900460ff1615151515815250509050919050565b600060018383604051610314929190611046565b908152602001604051809103902060009054906101000a900473ffffffffffffffffffffffffffffffffffffffff16905092915050565b3373ffffffffffffffffffffffffffffffffffffffff1660018383604051610374929190611046565b908152602001604051809103902060009054906101000a900473ffffffffffffffffffffffffffffffffffffffff1673ffffffffffffffffffffffffffffffffffffffff16146103f0576040517fea8e4eb500000000000000000000000000000000000000000000000000000000815260040160405180910390fd5b6000803373ffffffffffffffffffffffffffffffffffffffff1673ffffffffffffffffffffffffffffffffffffffff16815260200190815260200160002060030160009054906101000a900460ff1661048057336040517f514b483a0000000000000000000000000000000000000000000000000000000081526004016104779190610ee1565b60405180910390fd5b60008060003373ffffffffffffffffffffffffffffffffffffffff1673ffffffffffffffffffffffffffffffffffffffff16815260200190815260200160002060030160006101000a81548160ff0219169083151502179055503373ffffffffffffffffffffffffffffffffffffffff167ff6b2dd15d200455b3d1e4bd4a934b80a5433e5f54a2cae19670a9ca3b4f45791838360405161052292919061109d565b60405180910390a25050565b610536610c11565b60006001848460405161054a929190611046565b908152602001604051809103902060009054906101000a900473ffffffffffffffffffffffffffffffffffffffff169050600073ffffffffffffffffffffffffffffffffffffffff168173ffffffffffffffffffffffffffffffffffffffff16036105ee5783836040517f0d28a9eb0000000000000000000000000000000000000000000000000000000081526004016105e592919061109d565b60405180910390fd5b6000808273ffffffffffffffffffffffffffffffffffffffff1673ffffffffffffffffffffffffffffffffffffffff16815260200190815260200160002060405180608001604052908160008201805461064790610fd6565b80601f016020809104026020016040519081016040528092919081815260200182805461067390610fd6565b80156106c05780601f10610695576101008083540402835291602001916106c0565b820191906000526020600020905b8154815290600101906020018083116106a357829003601f168201915b505050505081526020016001820180546106d990610fd6565b80601f016020809104026020016040519081016040528092919081815260200182805461070590610fd6565b80156107525780601f1061072757610100808354040283529160200191610752565b820191906000526020600020905b81548152906001019060200180831161073557829003601f168201915b50505050508152602001600282015481526020016003820160009054906101000a900460ff16151515158152505091505092915050565b600084849050036107c6576040517fccdf6bd500000000000000000000000000000000000000000000000000000000815260040160405180910390fd5b60008282905003610803576040517f8a09289100000000000000000000000000000000000000000000000000000000815260040160405180910390fd5b60008060003373ffffffffffffffffffffffffffffffffffffffff1673ffffffffffffffffffffffffffffffffffffffff168152602001908152602001600020600201541461088957336040517fd2a299910000000000000000000000000000000000000000000000000000000081526004016108809190610ee1565b60405180910390fd5b600073ffffffffffffffffffffffffffffffffffffffff16600185856040516108b3929190611046565b908152602001604051809103902060009054906101000a900473ffffffffffffffffffffffffffffffffffffffff1673ffffffffffffffffffffffffffffffffffffffff161461093c5783836040517f34239c1300000000000000000000000000000000000000000000000000000000815260040161093392919061109d565b60405180910390fd5b6000604051806080016040528086868080601f016020809104026020016040519081016040528093929190818152602001838380828437600081840152601f19601f82011690508083019250505050505050815260200184848080601f016020809104026020016040519081016040528093929190818152602001838380828437600081840152601f19601f820116905080830192505050505050508152602001428152602001600115158152509050806000803373ffffffffffffffffffffffffffffffffffffffff1673ffffffffffffffffffffffffffffffffffffffff1681526020019081526020016000206000820151816000019081610a40919061129c565b506020820151816001019081610a56919061129c565b506040820151816002015560608201518160030160006101000a81548160ff0219169083151502179055509050503360018686604051610a97929190611046565b908152602001604051809103902060006101000a81548173ffffffffffffffffffffffffffffffffffffffff021916908373ffffffffffffffffffffffffffffffffffffffff1602179055503373ffffffffffffffffffffffffffffffffffffffff167fd59e4d670f6e249831d6f8ce560f47ced54b3f4203e2d0050dc495fd6b919dd28686604051610b2b92919061109d565b60405180910390a25050505050565b60008060018484604051610b4f929190611046565b908152602001604051809103902060009054906101000a900473ffffffffffffffffffffffffffffffffffffffff169050600073ffffffffffffffffffffffffffffffffffffffff168173ffffffffffffffffffffffffffffffffffffffff1614158015610c0857506000808273ffffffffffffffffffffffffffffffffffffffff1673ffffffffffffffffffffffffffffffffffffffff16815260200190815260200160002060030160009054906101000a900460ff165b91505092915050565b60405180608001604052806060815260200160608152602001600081526020016000151581525090565b600080fd5b600080fd5b600073ffffffffffffffffffffffffffffffffffffffff82169050919050565b6000610c7082610c45565b9050919050565b610c8081610c65565b8114610c8b57600080fd5b50565b600081359050610c9d81610c77565b92915050565b600060208284031215610cb957610cb8610c3b565b5b6000610cc784828501610c8e565b91505092915050565b600081519050919050565b600082825260208201905092915050565b60005b83811015610d0a578082015181840152602081019050610cef565b60008484015250505050565b6000601f19601f8301169050919050565b6000610d3282610cd0565b610d3c8185610cdb565b9350610d4c818560208601610cec565b610d5581610d16565b840191505092915050565b6000819050919050565b610d7381610d60565b82525050565b60008115159050919050565b610d8e81610d79565b82525050565b60006080830160008301518482036000860152610db18282610d27565b91505060208301518482036020860152610dcb8282610d27565b9150506040830151610de06040860182610d6a565b506060830151610df36060860182610d85565b508091505092915050565b60006020820190508181036000830152610e188184610d94565b905092915050565b600080fd5b600080fd5b600080fd5b60008083601f840112610e4557610e44610e20565b5b8235905067ffffffffffffffff811115610e6257610e61610e25565b5b602083019150836001820283011115610e7e57610e7d610e2a565b5b9250929050565b60008060208385031215610e9c57610e9b610c3b565b5b600083013567ffffffffffffffff811115610eba57610eb9610c40565b5b610ec685828601610e2f565b92509250509250929050565b610edb81610c65565b82525050565b6000602082019050610ef66000830184610ed2565b92915050565b60008060008060408587031215610f1657610f15610c3b565b5b600085013567ffffffffffffffff811115610f3457610f33610c40565b5b610f4087828801610e2f565b9450945050602085013567ffffffffffffffff811115610f6357610f62610c40565b5b610f6f87828801610e2f565b925092505092959194509250565b610f8681610d79565b82525050565b6000602082019050610fa16000830184610f7d565b92915050565b7f4e487b7100000000000000000000000000000000000000000000000000000000600052602260045260246000fd5b60006002820490506001821680610fee57607f821691505b60208210810361100157611000610fa7565b5b50919050565b600081905092915050565b82818337600083830152505050565b600061102d8385611007565b935061103a838584611012565b82840190509392505050565b6000611053828486611021565b91508190509392505050565b600082825260208201905092915050565b600061107c838561105f565b9350611089838584611012565b61109283610d16565b840190509392505050565b600060208201905081810360008301526110b8818486611070565b90509392505050565b7f4e487b7100000000000000000000000000000000000000000000000000000000600052604160045260246000fd5b60008190508160005260206000209050919050565b60006020601f8301049050919050565b600082821b905092915050565b6000600883026111527fffffffffffffffffffffffffffffffffffffffffffffffffffffffffffffffff82611115565b61115c8683611115565b95508019841693508086168417925050509392505050565b6000819050919050565b600061119961119461118f84610d60565b611174565b610d60565b9050919050565b6000819050919050565b6111b38361117e565b6111c76111bf826111a0565b848454611122565b825550505050565b600090565b6111dc6111cf565b6111e78184846111aa565b505050565b5b8181101561120b576112006000826111d4565b6001810190506111ed565b5050565b601f82111561125057611221816110f0565b61122a84611105565b81016020851015611239578190505b61124d61124585611105565b8301826111ec565b50505b505050565b600082821c905092915050565b600061127360001984600802611255565b1980831691505092915050565b600061128c8383611262565b9150826002028217905092915050565b6112a582610cd0565b67ffffffffffffffff8111156112be576112bd6110c1565b5b6112c88254610fd6565b6112d382828561120f565b600060209050601f83116001811461130657600084156112f4578287015190505b6112fe8582611280565b865550611366565b601f198416611314866110f0565b60005b8281101561133c57848901518255600182019150602085019450602081019050611317565b868310156113595784890151611355601f891682611262565b8355505b6001600288020188555050505b50505050505056fea2646970667358221220d1941714545412a819d2a98f82715eb6917e48f25f3effa936f1e9b7eb2e17e164736f6c634300081b0033",
  "linkReferences": {},
  "deployedLinkReferences": {}
}