{
  "_format": "hh-sol-artifact-1",
  "contractName": "IdentityRegistry",
  "sourceName": "contracts/IdentityRegistry.sol",
  "abi": [
    {
      "inputs": [
        {
          "internalType": "address",
          "name": "owner",
          "type": "address"
        }
      ],
      "name": "DIDAlreadyDeactivated",
      "type": "error"
    },
    {
      "inputs": [
        {
          "internalType": "string",
          "name": "did",
          "type": "string"
        }
      ],
      "name": "DIDAlreadyExists",
      "type": "error"
    },
    {
      "inputs": [
        {
          "internalType": "address",
          "name": "owner",
          "type": "address"
        }
      ],
      "name": "DIDAlreadyRegistered",
      "type": "error"
    },
    {
      "inputs": [],
      "name": "DIDCannotBeEmpty",
      "type": "error"
    },
    {
      "inputs": [
        {
          "internalType": "string",
          "name": "did",
          "type": "string"
        }
      ],
      "name": "DIDNotFound",
      "type": "error"
    },
    {
      "inputs": [],
      "name": "NotAuthorized",
      "type": "error"
    },
    {
      "inputs": [],
      "name": "PublicKeyCannotBeEmpty",
      "type": "error"
    },
    {
      "anonymous": false,
      "inputs": [
        {
          "indexed": false,
          "internalType": "string",
          "name": "did",
          "type": "string"
        },
        {
          "indexed": true,
          "internalType": "address",
          "name": "owner",
          "type": "address"
        }
      ],
      "name": "DIDDeactivated",
      "type": "event"
    },
    {
      "anonymous": false,
      "inputs": [
        {
          "indexed": false,
          "internalType": "string",
          "name": "did",
          "type": "string"
        },
        {
          "indexed": true,
          "internalType": "address",
          "name": "owner",
          "type": "address"
        }
      ],
      "name": "DIDRegistered",
      "type": "event"
    },
    {
      "inputs": [
        {
          "internalType": "string",
          "name": "did",
          "type": "string"
        }
      ],
      "name": "deactivateDID",
      "outputs": [],
      "stateMutability": "nonpayable",
      "type": "function"
    },
    {
      "inputs": [
        {
          "internalType": "string",
          "name": "did",
          "type": "string"
        }
      ],
      "name": "getDIDDocument",
      "outputs": [
        {
          "components": [
            {
              "internalType": "string",
              "name": "did",
              "type": "string"
            },
            {
              "internalType": "bytes",
              "name": "publicKey",
              "type": "bytes"
            },
            {
              "internalType": "uint256",
              "name": "timestamp",
              "type": "uint256"
            },
            {
              "internalType": "bool",
              "name": "active",
              "type": "bool"
            }
          ],
          "internalType": "struct IdentityRegistry.DIDDocument",
          "name": "",
          "type": "tuple"
        }
      ],
      "stateMutability": "view",
      "type": "function"
    },
    {
      "inputs": [
        {
          "internalType": "string",
          "name": "did",
          "type": "string"
        }
      ],
      "name": "getDidAddress",
      "outputs": [
        {
          "internalType": "address",
          "name": "",
          "type": "address"
        }
      ],
      "stateMutability": "view",
      "type": "function"
    },
    {
      "inputs": [
        {
          "internalType": "string",
          "name": "did",
          "type": "string"
        }
      ],
      "name": "isValidDID",
      "outputs": [
        {
          "internalType": "bool",
          "name": "",
          "type": "bool"
        }
      ],
      "stateMutability": "view",
      "type": "function"
    },
    {
      "inputs": [
        {
          "internalType": "string",
          "name": "did",
          "type": "string"
        },
        {
          "internalType": "bytes",
          "name": "publicKey",
          "type": "bytes"
        }
      ],
      "name": "registerDID",
      "outputs": [],
      "stateMutability": "nonpayable",
      "type": "function"
    }
  ],
  "bytecode": "0x6080604052348015600f57600080fd5b506113478061001f6000396000f3fe608060405234801561001057600080fd5b50600436106100575760003560e01c806331638e671461005c5780633b253b231461008c578063784afc4e146100a85780637898adc0146100d8578063e4114498146100f4575b600080fd5b61007660048036038101906100719190610ace565b610124565b6040516100839190610b5c565b60405180910390f35b6100a660048036038101906100a19190610ace565b61016f565b005b6100c260048036038101906100bd9190610ace565b610352565b6040516100cf9190610cfa565b60405180910390f35b6100f260048036038101906100ed9190610d72565b6105ad565b005b61010e60048036038101906101099190610ace565b61095e565b60405161011b9190610e02565b60405180910390f35b600060018383604051610138929190610e5c565b908152602001604051809103902060009054906101000a900473ffffffffffffffffffffffffffffffffffffffff16905092915050565b3373ffffffffffffffffffffffffffffffffffffffff1660018383604051610198929190610e5c565b908152602001604051809103902060009054906101000a900473ffffffffffffffffffffffffffffffffffffffff1673ffffffffffffffffffffffffffffffffffffffff1614610214576040517fea8e4eb500000000000000000000000000000000000000000000000000000000815260040160405180910390fd5b6000803373ffffffffffffffffffffffffffffffffffffffff1673ffffffffffffffffffffffffffffffffffffffff16815260200190815260200160002060030160009054906101000a900460ff166102a457336040517f514b483a00000000000000000000000000000000000000000000000000000000815260040161029b9190610b5c565b60405180910390fd5b60008060003373ffffffffffffffffffffffffffffffffffffffff1673ffffffffffffffffffffffffffffffffffffffff16815260200190815260200160002060030160006101000a81548160ff0219169083151502179055503373ffffffffffffffffffffffffffffffffffffffff167ff6b2dd15d200455b3d1e4bd4a934b80a5433e5f54a2cae19670a9ca3b4f457918383604051610346929190610eb3565b60405180910390a25050565b61035a610a35565b60006001848460405161036e929190610e5c565b908152602001604051809103902060009054906101000a900473ffffffffffffffffffffffffffffffffffffffff169050600073ffffffffffffffffffffffffffffffffffffffff168173ffffffffffffffffffffffffffffffffffffffff16036104125783836040517f0d28a9eb000000000000000000000000000000000000000000000000000000008152600401610409929190610eb3565b60405180910390fd5b6000808273ffffffffffffffffffffffffffffffffffffffff1673ffffffffffffffffffffffffffffffffffffffff16815260200190815260200160002060405180608001604052908160008201805461046b90610f06565b80601f016020809104026020016040519081016040528092919081815260200182805461049790610f06565b80156104e45780601f106104b9576101008083540402835291602001916104e4565b820191906000526020600020905b8154815290600101906020018083116104c757829003601f168201915b505050505081526020016001820180546104fd90610f06565b80601f016020809104026020016040519081016040528092919081815260200182805461052990610f06565b80156105765780601f1061054b57610100808354040283529160200191610576565b820191906000526020600020905b81548152906001019060200180831161055957829003601f168201915b50505050508152602001600282015481526020016003820160009054906101000a900460ff16151515158152505091505092915050565b600084849050036105ea576040517fccdf6bd500000000000000000000000000000000000000000000000000000000815260040160405180910390fd5b60008282905003610627576040517f8a09289100000000000000000000000000000000000000000000000000000000815260040160405180910390fd5b60008060003373ffffffffffffffffffffffffffffffffffffffff1673ffffffffffffffffffffffffffffffffffffffff16815260200190815260200160002060020154146106ad57336040517fd2a299910000000000000000000000000000000000000000000000000000000081526004016106a49190610b5c565b60405180910390fd5b600073ffffffffffffffffffffffffffffffffffffffff16600185856040516106d7929190610e5c565b908152602001604051809103902060009054906101000a900473ffffffffffffffffffffffffffffffffffffffff1673ffffffffffffffffffffffffffffffffffffffff16146107605783836040517f34239c13000000000000000000000000000000000000000000000000000000008152600401610757929190610eb3565b60405180910390fd5b6000604051806080016040528086868080601f016020809104026020016040519081016040528093929190818152602001838380828437600081840152601f19601f82011690508083019250505050505050815260200184848080601f016020809104026020016040519081016040528093929190818152602001838380828437600081840152601f19601f820116905080830192505050505050508152602001428152602001600115158152509050806000803373ffffffffffffffffffffffffffffffffffffffff1673ffffffffffffffffffffffffffffffffffffffff16815260200190815260200160002060008201518160000190816108649190611112565b50602082015181600101908161087a919061123f565b506040820151816002015560608201518160030160006101000a81548160ff02191690831515021790555090505033600186866040516108bb929190610e5c565b908152602001604051809103902060006101000a81548173ffffffffffffffffffffffffffffffffffffffff021916908373ffffffffffffffffffffffffffffffffffffffff1602179055503373ffffffffffffffffffffffffffffffffffffffff167fd59e4d670f6e249831d6f8ce560f47ced54b3f4203e2d0050dc495fd6b919dd2868660405161094f929190610eb3565b60405180910390a25050505050565b60008060018484604051610973929190610e5c565b908152602001604051809103902060009054906101000a900473ffffffffffffffffffffffffffffffffffffffff169050600073ffffffffffffffffffffffffffffffffffffffff168173ffffffffffffffffffffffffffffffffffffffff1614158015610a2c57506000808273ffffffffffffffffffffffffffffffffffffffff1673ffffffffffffffffffffffffffffffffffffffff16815260200190815260200160002060030160009054906101000a900460ff165b91505092915050565b60405180608001604052806060815260200160608152602001600081526020016000151581525090565b600080fd5b600080fd5b600080fd5b600080fd5b600080fd5b60008083601f840112610a8e57610a8d610a69565b5b8235905067ffffffffffffffff811115610aab57610aaa610a6e565b5b602083019150836001820283011115610ac757610ac6610a73565b5b9250929050565b60008060208385031215610ae557610ae4610a5f565b5b600083013567ffffffffffffffff811115610b0357610b02610a64565b5b610b0f85828601610a78565b92509250509250929050565b600073ffffffffffffffffffffffffffffffffffffffff82169050919050565b6000610b4682610b1b565b9050919050565b610b5681610b3b565b82525050565b6000602082019050610b716000830184610b4d565b92915050565b600081519050919050565b600082825260208201905092915050565b60005b83811015610bb1578082015181840152602081019050610b96565b60008484015250505050565b6000601f19601f8301169050919050565b6000610bd982610b77565b610be38185610b82565b9350610bf3818560208601610b93565b610bfc81610bbd565b840191505092915050565b600081519050919050565b600082825260208201905092915050565b6000610c2e82610c07565b610c388185610c12565b9350610c48818560208601610b93565b610c5181610bbd565b840191505092915050565b6000819050919050565b610c6f81610c5c565b82525050565b60008115159050919050565b610c8a81610c75565b82525050565b60006080830160008301518482036000860152610cad8282610bce565b91505060208301518482036020860152610cc78282610c23565b9150506040830151610cdc6040860182610c66565b506060830151610cef6060860182610c81565b508091505092915050565b60006020820190508181036000830152610d148184610c90565b905092915050565b60008083601f840112610d3257610d31610a69565b5b8235905067ffffffffffffffff811115610d4f57610d4e610a6e565b5b602083019150836001820283011115610d6b57610d6a610a73565b5b9250929050565b60008060008060408587031215610d8c57610d8b610a5f565b5b600085013567ffffffffffffffff811115610daa57610da9610a64565b5b610db687828801610a78565b9450945050602085013567ffffffffffffffff811115610dd957610dd8610a64565b5b610de587828801610d1c565b925092505092959194509250565b610dfc81610c75565b82525050565b6000602082019050610e176000830184610df3565b92915050565b600081905092915050565b82818337600083830152505050565b6000610e438385610e1d565b9350610e50838584610e28565b82840190509392505050565b6000610e69828486610e37565b91508190509392505050565b600082825260208201905092915050565b6000610e928385610e75565b9350610e9f838584610e28565b610ea883610bbd565b840190509392505050565b60006020820190508181036000830152610ece818486610e86565b90509392505050565b7f4e487b7100000000000000000000000000000000000000000000000000000000600052602260045260246000fd5b60006002820490506001821680610f1e57607f821691505b602082108103610f3157610f30610ed7565b5b50919050565b7f4e487b7100000000000000000000000000000000000000000000000000000000600052604160045260246000fd5b60008190508160005260206000209050919050565b60006020601f8301049050919050565b600082821b905092915050565b600060088302610fc87fffffffffffffffffffffffffffffffffffffffffffffffffffffffffffffffff82610f8b565b610fd28683610f8b565b95508019841693508086168417925050509392505050565b6000819050919050565b600061100f61100a61100584610c5c565b610fea565b610c5c565b9050919050565b6000819050919050565b61102983610ff4565b61103d61103582611016565b848454610f98565b825550505050565b600090565b611052611045565b61105d818484611020565b505050565b5b818110156110815761107660008261104a565b600181019050611063565b5050565b601f8211156110c65761109781610f66565b6110a084610f7b565b810160208510156110af578190505b6110c36110bb85610f7b565b830182611062565b50505b505050565b600082821c905092915050565b60006110e9600019846008026110cb565b1980831691505092915050565b600061110283836110d8565b9150826002028217905092915050565b61111b82610b77565b67ffffffffffffffff81111561113457611133610f37565b5b61113e8254610f06565b611149828285611085565b600060209050601f83116001811461117c576000841561116a578287015190505b61117485826110f6565b8655506111dc565b601f19841661118a86610f66565b60005b828110156111b25784890151825560018201915060208501945060208101905061118d565b868310156111cf57848901516111cb601f8916826110d8565b8355505b6001600288020188555050505b505050505050565b60008190508160005260206000209050919050565b601f82111561123a5761120b816111e4565b61121484610f7b565b81016020851015611223578190505b61123761122f85610f7b565b830182611062565b50505b505050565b61124882610c07565b67ffffffffffffffff81111561126157611260610f37565b5b61126b8254610f06565b6112768282856111f9565b600060209050601f8311600181146112a95760008415611297578287015190505b6112a185826110f6565b865550611309565b601f1984166112b7866111e4565b60005b828110156112df578489015182556001820191506020850194506020810190506112ba565b868310156112fc57848901516112f8601f8916826110d8565b8355505b6001600288020188555050505b50505050505056fea2646970667358221220fcfbfa9bbecb2a97ad185f171b6d829370e74fd2a4351a239aa91cbd7439c16b64736f6c634300081b0033",
  "linkReferences": {},
  "deployedLinkReferences": {}
}