{
  "_format": "hh-sol-artifact-1",
  "contractName": "SessionManager",
  "sourceName": "contracts/SessionManager.sol",
  "abi": [
    {
      "inputs": [
        {
          "internalType": "address",
          "name": "_identityRegistryAddress",
          "type": "address"
        }
      ],
      "stateMutability": "nonpayable",
      "type": "constructor"
    },
    {
      "inputs": [
        {
          "internalType": "string",
          "name": "did",
          "type": "string"
        }
      ],
      "name": "InvalidDID",
      "type": "error"
    },
    {
      "inputs": [],
      "name": "NotAuthorized",
      "type": "error"
    },
    {
      "inputs": [
        {
          "internalType": "string",
          "name": "did",
          "type": "string"
        }
      ],
      "name": "SessionAlreadyExists",
      "type": "error"
    },
    {
      "inputs": [
        {
          "internalType": "bytes32",
          "name": "sessionId",
          "type": "bytes32"
        }
      ],
      "name": "SessionExpired",
      "type": "error"
    },
    {
      "inputs": [
        {
          "internalType": "bytes32",
          "name": "sessionId",
          "type": "bytes32"
        }
      ],
      "name": "SessionNotFound",
      "type": "error"
    },
    {
      "anonymous": false,
      "inputs": [
        {
          "indexed": true,
          "internalType": "bytes32",
          "name": "sessionId",
          "type": "bytes32"
        },
        {
          "indexed": false,
          "internalType": "string",
          "name": "did",
          "type": "string"
        }
      ],
      "name": "SessionCreated",
      "type": "event"
    },
    {
      "anonymous": false,
      "inputs": [
        {
          "indexed": true,
          "internalType": "bytes32",
          "name": "sessionId",
          "type": "bytes32"
        },
        {
          "indexed": false,
          "internalType": "string",
          "name": "did",
          "type": "string"
        }
      ],
      "name": "SessionRevoked",
      "type": "event"
    },
    {
      "inputs": [],
      "name": "SESSION_DURATION",
      "outputs": [
        {
          "internalType": "uint256",
          "name": "",
          "type": "uint256"
        }
      ],
      "stateMutability": "view",
      "type": "function"
    },
    {
      "inputs": [
        {
          "internalType": "string",
          "name": "did",
          "type": "string"
        }
      ],
      "name": "createSession",
      "outputs": [
        {
          "internalType": "bytes32",
          "name": "",
          "type": "bytes32"
        }
      ],
      "stateMutability": "nonpayable",
      "type": "function"
    },
    {
      "inputs": [
        {
          "internalType": "bytes32",
          "name": "sessionId",
          "type": "bytes32"
        }
      ],
      "name": "getSession",
      "outputs": [
        {
          "components": [
            {
              "internalType": "bytes32",
              "name": "sessionId",
              "type": "bytes32"
            },
            {
              "internalType": "string",
              "name": "did",
              "type": "string"
            },
            {
              "internalType": "uint256",
              "name": "timestamp",
              "type": "uint256"
            },
            {
              "internalType": "uint256",
              "name": "expiresAt",
              "type": "uint256"
            },
            {
              "internalType": "bool",
              "name": "active",
              "type": "bool"
            }
          ],
          "internalType": "struct SessionManager.Session",
          "name": "",
          "type": "tuple"
        }
      ],
      "stateMutability": "view",
      "type": "function"
    },
    {
      "inputs": [
        {
          "internalType": "bytes32",
          "name": "sessionId",
          "type": "bytes32"
        }
      ],
      "name": "revokeSession",
      "outputs": [],
      "stateMutability": "nonpayable",
      "type": "function"
    },
    {
      "inputs": [
        {
          "internalType": "bytes32",
          "name": "sessionId",
          "type": "bytes32"
        }
      ],
      "name": "validateSession",
      "outputs": [
        {
          "internalType": "bool",
          "name": "",
          "type": "bool"
        }
      ],
      "stateMutability": "view",
      "type": "function"
    }
  ],
  "bytecode": "0x608060405234801561001057600080fd5b5060405161154e38038061154e833981810160405281019061003291906100db565b806000806101000a81548173ffffffffffffffffffffffffffffffffffffffff021916908373ffffffffffffffffffffffffffffffffffffffff16021790555050610108565b600080fd5b600073ffffffffffffffffffffffffffffffffffffffff82169050919050565b60006100a88261007d565b9050919050565b6100b88161009d565b81146100c357600080fd5b50565b6000815190506100d5816100af565b92915050565b6000602082840312156100f1576100f0610078565b5b60006100ff848285016100c6565b91505092915050565b611437806101176000396000f3fe608060405234801561001057600080fd5b50600436106100575760003560e01c806312abb5bb1461005c57806339b240bd1461008c5780633deaa341146100bc578063551ef55d146100da578063a7fed3851461010a575b600080fd5b610076600480360381019061007191906109ec565b610126565b6040516100839190610a52565b60405180910390f35b6100a660048036038101906100a19190610a99565b61041d565b6040516100b39190610c0f565b60405180910390f35b6100c4610566565b6040516100d19190610c40565b60405180910390f35b6100f460048036038101906100ef9190610a99565b61056d565b6040516101019190610c6a565b60405180910390f35b610124600480360381019061011f9190610a99565b610691565b005b60008060009054906101000a900473ffffffffffffffffffffffffffffffffffffffff1673ffffffffffffffffffffffffffffffffffffffff1663e411449884846040518363ffffffff1660e01b8152600401610184929190610cd2565b602060405180830381865afa1580156101a1573d6000803e3d6000fd5b505050506040513d601f19601f820116820180604052508101906101c59190610d22565b6102085782826040517fc10cc5880000000000000000000000000000000000000000000000000000000081526004016101ff929190610cd2565b60405180910390fd5b6000801b6002848460405161021e929190610d7f565b908152602001604051809103902054146102715782826040517faf6963c1000000000000000000000000000000000000000000000000000000008152600401610268929190610cd2565b60405180910390fd5b60006102c084848080601f016020809104026020016040519081016040528093929190818152602001838380828437600081840152601f19601f82011690508083019250505050505050610843565b9050600062015180426102d39190610dc7565b905060006040518060a0016040528084815260200187878080601f016020809104026020016040519081016040528093929190818152602001838380828437600081840152601f19601f820116905080830192505050505050508152602001428152602001838152602001600115158152509050806001600085815260200190815260200160002060008201518160000155602082015181600101908161037a9190611036565b50604082015181600201556060820151816003015560808201518160040160006101000a81548160ff02191690831515021790555090505082600287876040516103c5929190610d7f565b908152602001604051809103902081905550827f5ee5ee9c3cd55f507a90e76af710a32cf0641ad3dbf2fa7c0aa82da1cd2331268787604051610409929190610cd2565b60405180910390a282935050505092915050565b610425610949565b6000600160008481526020019081526020016000206040518060a00160405290816000820154815260200160018201805461045f90610e59565b80601f016020809104026020016040519081016040528092919081815260200182805461048b90610e59565b80156104d85780601f106104ad576101008083540402835291602001916104d8565b820191906000526020600020905b8154815290600101906020018083116104bb57829003601f168201915b5050505050815260200160028201548152602001600382015481526020016004820160009054906101000a900460ff16151515158152505090506000801b81600001510361055d57826040517ffa9b370d0000000000000000000000000000000000000000000000000000000081526004016105549190610a52565b60405180910390fd5b80915050919050565b6201518081565b600080600160008481526020019081526020016000206040518060a0016040529081600082015481526020016001820180546105a890610e59565b80601f01602080910402602001604051908101604052809291908181526020018280546105d490610e59565b80156106215780601f106105f657610100808354040283529160200191610621565b820191906000526020600020905b81548152906001019060200180831161060457829003601f168201915b5050505050815260200160028201548152602001600382015481526020016004820160009054906101000a900460ff16151515158152505090506000801b81600001510361067357600091505061068c565b80608001518015610688575080606001514211155b9150505b919050565b60006001600083815260200190815260200160002090506000801b8160000154036106f357816040517ffa9b370d0000000000000000000000000000000000000000000000000000000081526004016106ea9190610a52565b60405180910390fd5b61078881600101805461070590610e59565b80601f016020809104026020016040519081016040528092919081815260200182805461073190610e59565b801561077e5780601f106107535761010080835404028352916020019161077e565b820191906000526020600020905b81548152906001019060200180831161076157829003601f168201915b5050505050610877565b6107be576040517fea8e4eb500000000000000000000000000000000000000000000000000000000815260040160405180910390fd5b60008160040160006101000a81548160ff0219169083151502179055506000801b6002826001016040516107f2919061118b565b908152602001604051809103902081905550817f346e0efe5d8dce1a1f5b39bf4203465b2acf19bb3d563acb91d5b4f6175dc814826001016040516108379190611226565b60405180910390a25050565b600081423360405160200161085a93929190611314565b604051602081830303815290604052805190602001209050919050565b60008060009054906101000a900473ffffffffffffffffffffffffffffffffffffffff1673ffffffffffffffffffffffffffffffffffffffff166331638e67836040518263ffffffff1660e01b81526004016108d39190611386565b602060405180830381865afa1580156108f0573d6000803e3d6000fd5b505050506040513d601f19601f8201168201806040525081019061091491906113d4565b73ffffffffffffffffffffffffffffffffffffffff163373ffffffffffffffffffffffffffffffffffffffff16149050919050565b6040518060a00160405280600080191681526020016060815260200160008152602001600081526020016000151581525090565b600080fd5b600080fd5b600080fd5b600080fd5b600080fd5b60008083601f8401126109ac576109ab610987565b5b8235905067ffffffffffffffff8111156109c9576109c861098c565b5b6020830191508360018202830111156109e5576109e4610991565b5b9250929050565b60008060208385031215610a0357610a0261097d565b5b600083013567ffffffffffffffff811115610a2157610a20610982565b5b610a2d85828601610996565b92509250509250929050565b6000819050919050565b610a4c81610a39565b82525050565b6000602082019050610a676000830184610a43565b92915050565b610a7681610a39565b8114610a8157600080fd5b50565b600081359050610a9381610a6d565b92915050565b600060208284031215610aaf57610aae61097d565b5b6000610abd84828501610a84565b91505092915050565b610acf81610a39565b82525050565b600081519050919050565b600082825260208201905092915050565b60005b83811015610b0f578082015181840152602081019050610af4565b60008484015250505050565b6000601f19601f8301169050919050565b6000610b3782610ad5565b610b418185610ae0565b9350610b51818560208601610af1565b610b5a81610b1b565b840191505092915050565b6000819050919050565b610b7881610b65565b82525050565b60008115159050919050565b610b9381610b7e565b82525050565b600060a083016000830151610bb16000860182610ac6565b5060208301518482036020860152610bc98282610b2c565b9150506040830151610bde6040860182610b6f565b506060830151610bf16060860182610b6f565b506080830151610c046080860182610b8a565b508091505092915050565b60006020820190508181036000830152610c298184610b99565b905092915050565b610c3a81610b65565b82525050565b6000602082019050610c556000830184610c31565b92915050565b610c6481610b7e565b82525050565b6000602082019050610c7f6000830184610c5b565b92915050565b600082825260208201905092915050565b82818337600083830152505050565b6000610cb18385610c85565b9350610cbe838584610c96565b610cc783610b1b565b840190509392505050565b60006020820190508181036000830152610ced818486610ca5565b90509392505050565b610cff81610b7e565b8114610d0a57600080fd5b50565b600081519050610d1c81610cf6565b92915050565b600060208284031215610d3857610d3761097d565b5b6000610d4684828501610d0d565b91505092915050565b600081905092915050565b6000610d668385610d4f565b9350610d73838584610c96565b82840190509392505050565b6000610d8c828486610d5a565b91508190509392505050565b7f4e487b7100000000000000000000000000000000000000000000000000000000600052601160045260246000fd5b6000610dd282610b65565b9150610ddd83610b65565b9250828201905080821115610df557610df4610d98565b5b92915050565b7f4e487b7100000000000000000000000000000000000000000000000000000000600052604160045260246000fd5b7f4e487b7100000000000000000000000000000000000000000000000000000000600052602260045260246000fd5b60006002820490506001821680610e7157607f821691505b602082108103610e8457610e83610e2a565b5b50919050565b60008190508160005260206000209050919050565b60006020601f8301049050919050565b600082821b905092915050565b600060088302610eec7fffffffffffffffffffffffffffffffffffffffffffffffffffffffffffffffff82610eaf565b610ef68683610eaf565b95508019841693508086168417925050509392505050565b6000819050919050565b6000610f33610f2e610f2984610b65565b610f0e565b610b65565b9050919050565b6000819050919050565b610f4d83610f18565b610f61610f5982610f3a565b848454610ebc565b825550505050565b600090565b610f76610f69565b610f81818484610f44565b505050565b5b81811015610fa557610f9a600082610f6e565b600181019050610f87565b5050565b601f821115610fea57610fbb81610e8a565b610fc484610e9f565b81016020851015610fd3578190505b610fe7610fdf85610e9f565b830182610f86565b50505b505050565b600082821c905092915050565b600061100d60001984600802610fef565b1980831691505092915050565b60006110268383610ffc565b9150826002028217905092915050565b61103f82610ad5565b67ffffffffffffffff81111561105857611057610dfb565b5b6110628254610e59565b61106d828285610fa9565b600060209050601f8311600181146110a0576000841561108e578287015190505b611098858261101a565b865550611100565b601f1984166110ae86610e8a565b60005b828110156110d6578489015182556001820191506020850194506020810190506110b1565b868310156110f357848901516110ef601f891682610ffc565b8355505b6001600288020188555050505b505050505050565b6000815461111581610e59565b61111f8186610d4f565b9450600182166000811461113a576001811461114f57611182565b60ff1983168652811515820286019350611182565b61115885610e8a565b60005b8381101561117a5781548189015260018201915060208101905061115b565b838801955050505b50505092915050565b60006111978284611108565b915081905092915050565b600081546111af81610e59565b6111b98186610c85565b945060018216600081146111d457600181146111ea5761121d565b60ff19831686528115156020028601935061121d565b6111f385610e8a565b60005b83811015611215578154818901526001820191506020810190506111f6565b808801955050505b50505092915050565b6000602082019050818103600083015261124081846111a2565b905092915050565b600061125382610ad5565b61125d8185610d4f565b935061126d818560208601610af1565b80840191505092915050565b6000819050919050565b61129461128f82610b65565b611279565b82525050565b600073ffffffffffffffffffffffffffffffffffffffff82169050919050565b60006112c58261129a565b9050919050565b60008160601b9050919050565b60006112e4826112cc565b9050919050565b60006112f6826112d9565b9050919050565b61130e611309826112ba565b6112eb565b82525050565b60006113208286611248565b915061132c8285611283565b60208201915061133c82846112fd565b601482019150819050949350505050565b600061135882610ad5565b6113628185610c85565b9350611372818560208601610af1565b61137b81610b1b565b840191505092915050565b600060208201905081810360008301526113a0818461134d565b905092915050565b6113b1816112ba565b81146113bc57600080fd5b50565b6000815190506113ce816113a8565b92915050565b6000602082840312156113ea576113e961097d565b5b60006113f8848285016113bf565b9150509291505056fea264697066735822122050650952907ff71bb763181dd28e11bc0ddf5ca08325c3429375dd87c44f15bf64736f6c634300081b0033",
  "linkReferences": {},
  "deployedLinkReferences": {}
}